:100000000C9467000C948F000C948F000C948F005C
:100010000C948F000C948F000C948F000C948F0024
:100020000C948F000C948F000C948F000C948F0014
:100030000C948F000C948F000C948F000C948F0004
:100040000C94BC030C948F000C94BB020C9495028E
:100050000C948F000C948F000C948F000C948F00E4
:100060000C940F040C948F00000000002500280061
:100070002B000000000023002600290000000008DB
:10008000000201000003040700000000000000005F
:1000900000000000240027002A00010204081020AC
:1000A000408001020408102001020408102004040A
:1000B0000404040404040202020202020303030310
:1000C00003032E002020002000300000240C112407
:1000D0001FBECFEFD8E0DEBFCDBF12E0A0E0B1E0A1
:1000E000E2E6F9E102C005900D92A432B107D9F71A
:1000F00024E0A4E2B2E001C01D92A43CB207E1F703
:1001000010E0C7E6D0E004C02197FE010E94960CE3
:10011000C636D107C9F70E94A4080C94AF0C0C9402
:100120000000CF92DF92EF92FF920F931F93CF9335
:10013000DF936C017A018B01C0E0D0E0CE15DF05C2
:1001400089F0D8016D918D01D601ED91FC9101905E
:10015000F081E02DC6010995892B11F47E0102C0C2
:100160002196ECCFC701DF91CF911F910F91FF90A6
:10017000EF90DF90CF900895FC01918D828D9817BC
:1001800061F0828DDF01A80FB11D5D968C91928D7B
:100190009F5F9F73928F90E008958FEF9FEF089578
:1001A000FC01918D828D981731F0828DE80FF11D41
:1001B000858D90E008958FEF9FEF0895FC01918D5C
:1001C000228D892F90E0805C9F4F821B91098F7355
:1001D0009927089583E094E00E94DE0021E0892BB6
:1001E00009F420E0822F0895FC01848DDF01A80F1F
:1001F000B11DA35ABF4F2C91848D90E001968F734F
:100200009927848FA689B7892C93A089B1898C916D
:1002100080648C93938D848D981306C00288F38933
:10022000E02D80818F7D80830895EF92FF920F9360
:100230001F93CF93DF93EC0181E0888F9B8D8C8D92
:10024000981305C0E889F989808185FD24C0F62EC0
:100250000B8D10E00F5F1F4F0F731127E02E8C8D59
:10026000E8120CC00FB607FCFACFE889F989808143
:1002700085FFF5CFCE010E94F400F1CF8B8DFE01FA
:10028000E80FF11DE35AFF4FF0820B8FEA89FB89DB
:100290008081806207C0EE89FF896083E889F989DF
:1002A00080818064808381E090E0DF91CF911F9115
:1002B0000F91FF90EF900895CF93DF93EC01888D1D
:1002C0008823C9F0EA89FB89808185FD05C0A8895A
:1002D000B9898C9186FD0FC00FB607FCF5CF8081E0
:1002E00085FFF2CFA889B9898C9185FFEDCFCE012A
:1002F0000E94F400E7CFDF91CF91089580E090E075
:10030000892B29F00E94EA0081110C9400000895C5
:10031000833081F028F4813099F08230A1F0089583
:100320008730A9F08830B9F08430D1F48091800012
:100330008F7D03C0809180008F7780938000089527
:1003400084B58F7702C084B58F7D84BD0895809178
:10035000B0008F7703C08091B0008F7D8093B00094
:1003600008953FB7F8948091700290917102A09126
:100370007202B091730226B5A89B05C02F3F19F0F9
:100380000196A11DB11D3FBFBA2FA92F982F882715
:10039000820F911DA11DB11DBC01CD0142E0660F70
:1003A000771F881F991F4A95D1F7089585ED80938F
:1003B000BC008091BC0084FDFCCF1092E003089546
:1003C00040914602262F30E0240F311D21323105A5
:1003D000DCF42091E0032430C9F4FC0180E090E0DB
:1003E000861758F4309146022191DC01AC5DBD4F77
:1003F000A30FB11D2C930196F3CF80914602680F95
:100400006093460280E0089581E0089582E00895B7
:100410000895E091E2038091E103E81730F4F0E001
:10042000ED51FC4F808190E008958FEF9FEF08958C
:100430009091E2038091E103981750F4E92FF0E0E6
:10044000ED51FC4F208130E09F5F9093E20302C0AA
:100450002FEF3FEFC90108958091E10390E02091D3
:10046000E203821B91090895CF92DF92EF92FF92EF
:100470000F931F93CF93DF937C01262F972F8A0131
:1004800080917903882391F0C62FD72F6E01C40E77
:10049000D51ECC15DD0571F06991D701ED91FC9168
:1004A0000190F081E02DC7010995F3CF642F822FD1
:1004B0000E94E001C801DF91CF911F910F91FF9041
:1004C000EF90DF90CF900895CF93DF931F92CDB739
:1004D000DEB76983209179032223D1F0209177033D
:1004E000203240F021E030E0FC013383228380E0C1
:1004F00090E015C080917803E82FF0E0E95AFC4FB6
:10050000998190838F5F809378038093770305C0F0
:1005100061E0CE0101960E94E00181E090E00F9041
:10052000DF91CF9108950E949C0C1F920F920FB6FD
:100530000F9211242F933F934F935F936F937F9369
:100540008F939F93AF93BF93EF93FF9383E094E0D8
:100550000E94F400FF91EF91BF91AF919F918F9115
:100560007F916F915F914F913F912F910F900FBEAF
:100570000F901F9018951F920F920FB60F92112493
:100580002F938F939F93EF93FF93E0911304F09138
:1005900014048081E0911904F0911A0482FD12C0C4
:1005A000908180911C048F5F8F7320911D048217AE
:1005B00051F0E0911C04F0E0ED5FFB4F958F8093CC
:1005C0001C0401C08081FF91EF919F918F912F9129
:1005D0000F900FBE0F901F901895CF93DF93282F89
:1005E00030E0F901E458FF4F8491F901E656FF4FDE
:1005F000D491F901E255FF4FC491CC2391F08111C0
:100600000E948801EC2FF0E0EE0FFF1FEE58FF4F25
:10061000A591B491EC91ED2381E090E021F480E08C
:1006200002C080E090E0DF91CF9108951F93CF93B7
:10063000DF93282F30E0F901E458FF4F8491F9014E
:10064000E656FF4FD491F901E255FF4FC491CC23F8
:10065000C9F0162F81110E948801EC2FF0E0EE0FF7
:10066000FF1FE859FF4FA591B4918FB7F89411116E
:1006700005C09C91ED2FE095E92302C0EC91ED2B94
:10068000EC938FBFDF91CF911F910895CF93DF93AC
:1006900090E0FC01E656FF4F2491FC01E255FF4F2C
:1006A0008491882361F190E0880F991FFC01E05745
:1006B000FF4FC591D491FC01E859FF4FA591B4912A
:1006C000611109C09FB7F89488812095822388839F
:1006D000EC912E230BC0623061F49FB7F8943881FF
:1006E000822F809583238883EC912E2B2C939FBFA0
:1006F00006C08FB7F894E8812E2B28838FBFDF9137
:10070000CF9108958F929F92AF92BF92CF92DF9236
:10071000EF92FF926B017C010E94B1014B015C01E1
:10072000C114D104E104F104F1F00E94B101DC0133
:10073000CB0188199909AA09BB09883E9340A105F4
:10074000B10570F321E0C21AD108E108F10888EE82
:10075000880E83E0981EA11CB11CC114D104E104D1
:10076000F10419F7DDCFFF90EF90DF90CF90BF90AD
:10077000AF909F908F9008951F920F920FB60F9297
:1007800011242F933F938F939F93AF93BF938091A7
:100790006C0290916D02A0916E02B0916F02309147
:1007A0006B0223E0230F2D3720F40196A11DB11D0C
:1007B00005C026E8230F0296A11DB11D20936B02F0
:1007C00080936C0290936D02A0936E02B0936F02BF
:1007D0008091700290917102A0917202B0917302A7
:1007E0000196A11DB11D8093700290937102A09398
:1007F0007202B0937302BF91AF919F918F913F911D
:100800002F910F900FBE0F901F901895682F80EAC0
:1008100094E00C94640208958CBD9DBD08951F92D0
:100820000F920FB60F9211242F933F934F935F9324
:100830006F937F938F939F93AF93BF93EF93FF93A8
:100840008091B900887F803609F49CC068F58832B1
:1008500009F45BC090F4803109F454C038F4882363
:1008600009F4F6C0883009F44DC0F6C0883109F4A7
:100870004CC0803209F45DC0EFC0803409F468C018
:1008800048F4803309F455C0883309F0E5C08093FB
:10089000DE03D8C0803509F44FC0883509F45DC047
:1008A000883409F0D9C0D6C0883909F4C7C0A8F483
:1008B000883709F467C038F4883609F463C0803794
:1008C00009F460C0C9C0883809F4B8C0803909F497
:1008D0005FC0803809F0C0C05BC0803B09F486C0AF
:1008E00038F4803A09F466C0883A09F47FC0B4C08D
:1008F000803C09F4A7C0883C09F4A4C0883B09F4F3
:100900008AC0AAC08091DB0310C09091DD03809162
:10091000DC03981770F5E091DD0381E08E0F809382
:10092000DD03F0E0E654FC4F80818093BB0085EC52
:1009300086C08093DE038EC0E091DD0381E08E0FE0
:100940008093DD038091BB00F0E0E654FC4F808390
:100950009091DD038091DC036EC0E091DD0381E0C6
:100960008E0F8093DD038091BB00F0E0E654FC4FD6
:1009700080838091DF0381116DC081E08093DA0371
:1009800084EA61C083E08093E00310926A02CFCFD3
:1009900080916A02803208F051C0E0916A0281E0E1
:1009A0008E0F80936A028091BB00F0E0E65BFD4F02
:1009B0008083BDCF85EC8093BC001092E0038091D2
:1009C0006A02803230F4E0916A02F0E0E65BFD4FAB
:1009D000108260916A0270E0E0914802F091490251
:1009E0008AE492E0099510926A0236C084E080930E
:1009F000E0031092470210924602E0914402F09107
:100A00004502099580914602811105C081E08093DD
:100A1000460210922402E091470281E08E0F8093FB
:100A20004702F0E0EC5DFD4F80818093BB00909128
:100A3000470280914602981708F479CF85E88093A1
:100A4000BC000AC085EC8093BC001092E00304C097
:100A50001092DE030E94D601FF91EF91BF91AF91FA
:100A60009F918F917F916F915F914F913F912F91C6
:100A70000F900FBE0F901F9018950F931F93CF9359
:100A8000DF939091C204992339F08EBD00000DB41C
:100A900007FEFDCF8EB528C0C82F61E08091AD0460
:100AA0000E94160300E010E0D0E060E08091AD0409
:100AB0000E941603CE01002E02C0959587950A94D8
:100AC000E2F780FF02C061E001C060E08091AE0407
:100AD0000E94160361E08091AD040E9416030F5F2F
:100AE0001F4F0830110509F7DF91CF911F910F912A
:100AF0000895EF92FF920F931F93CF938091C204BA
:100B0000882339F01EBC00000DB407FEFDCFCEB522
:100B100027C061E08091AD040E94160300E010E060
:100B2000C0E0EE24E394F12C8091AF040E94ED022A
:100B3000892B39F0C701002E01C0880F0A94EAF70B
:100B4000C82B60E08091AD040E94160361E08091A3
:100B5000AD040E9416030F5F1F4F0830110521F7E7
:100B60008C2FCF911F910F91FF90EF900895EF92EE
:100B7000FF920F931F93CF93DF93182FF92E062F19
:100B80008091C1048823C9F18091C204882321F097
:100B900081E790E00E940C0460E08091AC040E9428
:100BA000160362E070E080E090E00E94820383E040
:100BB0000E943D05E12EC12FDF2D8C2F8E1980174D
:100BC00050F461E070E080E090E00E9482030E94B7
:100BD00079058993F2CF61E08091AC040E941603FD
:100BE0008091C204882309F46FC0DF91CF911F91D7
:100BF0000F91FF90EF900C940B0462E070E080E0A6
:100C000090E00E9482038091E0038111FCCF22E0FA
:100C1000200F213208F020E281E08093E0038093EE
:100C2000DF039FEF9093DE031092DD03920F90930A
:100C3000DC038093DB038091DB0388648093DB0318
:100C40008091DA03813061F41092DA038091DB0342
:100C50008093BB008091BC0083FDF8CF85EC01C080
:100C600085EE8093BC008091E0038130E1F38091B8
:100C7000DD03821710F42091DD03AAEBB3E043EE0D
:100C800053E0FA018E2F841B821718F48D91819303
:100C9000F9CF1092E2032093E10380EA94E00E94EE
:100CA0001802E12EC12FDF2D8C2F8E19801760F4D2
:100CB00061E070E080E090E00E94820380EA94E0CE
:100CC0000E9418028993F0CFDF91CF911F910F916D
:100CD000FF90EF900895009769F0FC0101900020CB
:100CE000E9F73197AF01481B590BBC0183E094E051
:100CF0000C94910080E090E00895CF93DF930E94E0
:100D00006B06EC018CE491E00E946B068C0F9D1F3A
:100D1000DF91CF910895EF92FF920F931F93CF939E
:100D2000DF937C0100E010E08091C104882339F159
:100D30008091C204882321F081E790E00E940C0496
:100D400060E08091AC040E94160362E070E080E0F5
:100D500090E00E94820382E00E943D050E94790596
:100D6000D82F61E08091AC040E9416038091C204E8
:100D700081110E940B04C1E0D13041F41CC080916C
:100D8000B0040E94ED02C1E08823A9F0C0E0E114A4
:100D9000F10451F0065F1F4FE016F10628F48BE1D5
:100DA00092E00E947D0607C06AE070E080E090E07B
:100DB0000E948203B9CF8C2FDF91CF911F910F91A9
:100DC000FF90EF900895AF92BF92CF92DF92EF9293
:100DD000FF920F931F93CF93DF9300D000D000D0EA
:100DE000CDB7DEB77B019091C10401E0080F9923D4
:100DF00009F455C08091C204882321F081E790E076
:100E00000E940C0460E08091AC040E94160362E032
:100E100070E080E090E00E94820381E00E943D0546
:100E200080E00E943D0580E00E943D058FEF0E941A
:100E30003D05802F0E943D05802F81950E943D0534
:100E400084ED0E943D05A12C93EDB92E10E00150D8
:100E500011092A2D30E0201731076CF4C90186589A
:100E60009C4F6C01FC0180810E943D05F601808150
:100E7000B80EA394EECF8B2D80950E943D0580E0A7
:100E80000E943D0561E08091AC040E9416038091B0
:100E9000C204882309F495C00E940B0492C062E04A
:100EA00070E080E090E00E94820381E0809379030B
:100EB00084E28093C304109278031092770380E059
:100EC0000E94060480E00E9406048FEF0E94060440
:100ED000802F0E940604802F81950E94060484EDD5
:100EE0000E940604A12C83EDB82E10E001501109D8
:100EF0002A2D30E0201731076CF4C90186589C4F29
:100F00006C01FC0180810E940604F6018081B80E0C
:100F1000A394EECF8B2D80950E94060480E00E9462
:100F2000060480917703813208F045C09091E00378
:100F30009111FCCF92E09093E00391E09093DF0356
:100F40009FEF9093DE031092DD038093DC03A7E50F
:100F5000B3E02AEB33E0F9019E2F921B981718F4A7
:100F60009D919193F9CF1092DB038091DB0388640C
:100F70008093DB038091DA03813061F41092DA030D
:100F80008091DB038093BB008091BC0083FDF8CF90
:100F900085EC01C085EE8093BC008091E003823037
:100FA000E1F38091DE038F3F31F08091DE038032E8
:100FB00011F08091DE031092780310927703109263
:100FC0007903C7010E948B06182F811102C010E01F
:100FD00017C066E0CE0101960E94B70546E050E0DA
:100FE00066E071E0CE0101960E94A10C892B79F791
:100FF0008091C104882321F0C7010E948B06182F1D
:10100000812F26960FB6F894DEBF0FBECDBFDF91BD
:10101000CF911F910F91FF90EF90DF90CF90BF90F5
:10102000AF9008950F931F93CF93DF938C01C0E08F
:10103000D0E0F801EC0FFD1F6491662371F0E091A0
:101040000304F09104040190F081E02D83E094E02A
:101050000995892B11F02196ECCFCE01DF91CF912C
:101060001F910F9108958F929F92AF92BF920F930D
:101070001F93CF93DF93CDB7DEB7A1970FB6F89448
:10108000DEBF0FBECDBF19A2423008F44AE08E0188
:101090000F5D1F4F842E912CA12CB12CA501940122
:1010A0000E94740CE62FB901CA0101501109EA30FF
:1010B00014F4E05D01C0E95CD801EC93232B242BF0
:1010C000252B61F7C8010E946B06A1960FB6F89414
:1010D000DEBF0FBECDBFDF91CF911F910F91BF90AB
:1010E000AF909F908F900895823E10F080E0089519
:1010F000FB0190E490937A0391E090937B0392EA52
:1011000090937C0380937D0380819181A281B38140
:1011100080937E0390937F03A0938003B093810319
:1011200068EE73E088E00E94E3068823F9F26AE043
:1011300070E080E090E00E9482036AE18AE793E039
:101140000E94B70581E00895CF93DF93CDB7DEB756
:101150002C970FB6F894DEBF0FBECDBF789484B540
:10116000826084BD84B5816084BD85B5826085BDA3
:1011700085B5816085BD80916E00816080936E0031
:101180001092810080918100826080938100809123
:1011900081008160809381008091800081608093D4
:1011A00080008091B10084608093B1008091B00094
:1011B00081608093B00080917A00846080937A008F
:1011C00080917A00826080937A0080917A008160B9
:1011D00080937A0080917A00806880937A001092E0
:1011E000C100E0911304F091140482E08083E09147
:1011F0000F04F09110041082E0911104F091120498
:101200008FEC808310921B04E0911704F091180476
:1012100086E08083E0911504F0911604808180615E
:101220008083E0911504F0911604808188608083AA
:10123000E0911504F0911604808180688083E0912C
:101240001504F091160480818F7D80838091C10404
:10125000882309F462C08091C204882309F444C041
:101260001FB7F89480917402811127C0E8EBF0E079
:101270008491E4EAF0E09491E82FF0E0EE0FFF1F94
:10128000E057FF4FA591B491EC91E92321F461E07F
:101290008AE00E94160361E08AE00E9446038CB552
:1012A00080618CBD8CB580648CBD61E08DE00E9456
:1012B000460361E08BE00E944603809174028F5FD9
:1012C000809374021FBF8CB5837F8CBD8CB5806208
:1012D0008CBD8CB58C7F81608CBD8DB58E7F8DBDB6
:1012E00081E790E00E940C0460E08091AC040E94D1
:1012F000160368EE73E080E090E00E94820382E0D3
:1013000080937A0368EE73E081E00E94E30661E077
:101310008091AC040E94160342C01092E203109226
:10132000E10310927803109277031092E00381E0BA
:101330008093DF031092DA0361E082E10E941603DA
:1013400061E083E10E9416038091B9008E7F809353
:10135000B9008091B9008D7F8093B90088E48093B3
:10136000B80085E48093BC0061E08091B1040E94E4
:10137000160360E08091B1040E94160360E971E0F9
:1013800080E090E00E94820361E08091B1040E94BD
:1013900016036AE070E080E090E00E94820382E041
:1013A00080937A0368EE73E081E00E94E30688236D
:1013B000A1F16CE08AE793E00E94B70546E050E0B7
:1013C00060E071E08AE793E00E94A10C892B29F587
:1013D0008091C104811103C0E7E0F0E002C0E6E0C3
:1013E000F0E0E658FC4F808190E0A0E0B0E0BA2F3A
:1013F000A92F982F88272181822BBA2FA92F982FC8
:1014000088272281822BBA2FA92F982F8827238102
:10141000822B892B8A2B8B2B29F48CE291E00E9462
:101420006B06FFCF94E190937A0381E080937B0376
:1014300090937C0380937D0368EE73E084E00E94C8
:10144000E306882329F068E08AE793E00E94B70565
:10145000CE0101967C0187E0F70111928A95E9F7A8
:101460008AE480937A0381E080937B0310927C036B
:1014700060E070E083E00E94E306182F882321F1EA
:101480008091C104882381F064E18AE793E00E949F
:10149000B705809181038130B1F4F0918603FC8718
:1014A000A7E8B3E0F70107C080E090E00E948B0658
:1014B0008111EACF08C08E2F8E199C85891720F4E0
:1014C0008D918193F8CF10E010935603112309F406
:1014D000B2C162E370E080E090E00E94820383E0AA
:1014E00094E00E94DE00892BD1F3EC85E73009F00F
:1014F0009AC183E094E00E94DE00019709F00DC1DB
:1015000083E094E00E94BC00182F83E094E00E94E6
:101510005C011D3009F48BC124F41A3009F487C131
:10152000CEC0123571F0173509F0C9C084E891E0DA
:101530000E947D0664EF71E080E090E00E948203EB
:1015400076C1412C512C3201F0E4F0937A0381E012
:1015500080937B0390E390937C0340927D0368EE3D
:1015600073E084E00E94E306811102C080E01AC0AB
:101570006AE18AE793E00E94B705809181038111B7
:10158000F5CF8091820390918303A0918403B09161
:1015900085038093750290937602A0937702B093AF
:1015A000780281E08093560384E491E00E946B0608
:1015B000EAE04E1651046104710420F48AE491E0DB
:1015C0000E946B064AE0C301B2010E94330882EA1E
:1015D00091E00E946B0680915603882309F452C063
:1015E00095E7C92E92E0D92E8601812C912C5401C9
:1015F0001801F8018081803120F489EC90E00E948C
:1016000012080F5F1F4FF101608170E080E090E0F1
:1016100040E10E943308F3E08F169104A104B10465
:1016200021F087EC90E00E9412088FEF881A980A48
:10163000A80AB80A94E089169104A104B104C1F67D
:1016400084EC90E00E941208F60161916F01603213
:1016500028F482EC90E00E9412080AC0E091030492
:10166000F09104040190F081E02D83E094E009956D
:10167000F9E7CF16F2E0DF0639F78CE491E00E943B
:101680006B0604C08FE491E00E947D0683E094E045
:101690000E945C018FEF481A580A680A780A9DE296
:1016A000491651046104710409F04ECF82E791E0BC
:1016B0000E947D0683E094E00E945C01B8C083E94B
:1016C00091E00E946B0683E094E00E94DE002C0112
:1016D000990F6608770877FE14C0E0910304F09133
:1016E00004040190F081E02D6DE283E094E009951F
:1016F00066277727CB0164197509860997094AE09F
:1017000003C04AE0C301B2010E9433088CE491E0B7
:101710000E946B0685EA91E088C083E094E00E9415
:10172000DE00CB973CF462E370E080E090E00E9442
:101730008203F3CF82EAC82E82E0D82E860183E0AE
:1017400094E00E94BC00F80181938F01F2E00E3D0D
:101750001F07A9F78BEA91E00E947D0683E094E0E1
:101760000E94DE00CB973CF462E370E080E090E002
:101770000E948203F3CF0EED12E083E094E00E941A
:10178000BC00F80181938F01F3E00A311F07A9F72C
:101790008CEB91E00E947D0683E094E00E94DE00E5
:1017A000CB973CF462E370E080E090E00E9482031B
:1017B000F3CF0AE113E083E094E00E94BC00F8015B
:1017C00081938F01F3E007351F07A9F71886198663
:1017D0001A861B8610E090E0F60181916F01E8E027
:1017E000F0E0EC0FFD1FE90FF11D80839F5F943047
:1017F00041F4BE01685F7F4F812F0E9474081F5F14
:1018000090E0F7E5CF16F3E0DF0631F7BE01685F41
:101810007F4F812F0E94740883E094E00E945C0156
:101820008EEC91E002C08AED91E00E947D0683E09B
:1018300094E00E945C0183E094E00E94DE00892B2A
:10184000D1F30E947E0107CECF93DF93E3E0F4E073
:101850001382128288EE93E0A0E0B0E08483958347
:10186000A683B78320E131E03183208325EC30E08B
:101870003587248724EC30E03787268720EC30E05A
:10188000318B208B21EC30E0338B228B22EC30E04B
:10189000358B248B26EC30E0378B268B118E128E05
:1018A000138E148EE0EAF4E013821282848395830F
:1018B000A683B78380E291E091838083CCEAD4E071
:1018C000188219821A821B8282E08C8383E08D83C6
:1018D0001D8A1E8A60E082E00E94460361E08D81DD
:1018E000DF91CF910C944603A1E21A2EAA1BBB1BD9
:1018F000FD010DC0AA1FBB1FEE1FFF1FA217B307DC
:10190000E407F50720F0A21BB30BE40BF50B661FF1
:10191000771F881F991F1A9469F7609570958095B5
:1019200090959B01AC01BD01CF010895EE0FFF1F03
:101930000590F491E02D099481E090E0F8940C94E6
:10194000AF0CFB01DC014150504030F08D91019013
:10195000801919F40020B9F7881B990B0895F894A1
:02196000FFCFB7
:1019620000FF06FAD5030000FF00FF0000000000A0
:1019720015019100DE00BC00D0005C0100000000F7
:10198200640234022C021802090208024469646EDD
:1019920027742066696E6420504E35337820626F5A
:1019A2006172640050414745200030000D0A005525
:1019B2006E61626C6520746F207265616420746868
:1019C2006520726571756573746564207061676501
:1019D200210054616720686173206265656E207220
:1019E20065616400526561647920746F2077726961
:1019F200746500427974657320617661696C616215
:101A02006C653A20004572726F7200466972737497
:101A12002067726F75702072656164005365636F31
:101A22006E642067726F7570207265616400546124
:101A320067205772697474656E0054686973206414
:101A42006F65736E2774207365656D20746F2062F5
:101A52006520616E204E54414732303320746167F5
:101A6200202855554944206C656E67746820213DD5
:101A7200203720627974657329210054494D454FFE
:041A82005554210096
:00000001FF
